3      800082665D0018699282220110131201101314056CONSIGNACION CONVENIO EMPRESARIAL EFECTI0018600884OPERACIONES EMPRESAR00000000000010000003148349000000067633557321              000000000000000000009455000000000000000000009455000024525C
3      800082665D0018699282220110131201101314056CONSIGNACION CONVENIO EMPRESARIAL EFECTI0018600884OPERACIONES EMPRESAR00000000000010000005170822000000067633557321              000000000000000000000055000000000000000000009455000024524C
3      800082665D0018699282220110131201101314056CONSIGNACION CONVENIO EMPRESARIAL EFECTI0018600884OPERACIONES EMPRESAR00000000000010000001107657000000067633557321              000000000000000000009455000000000000000000009455000024426C
3      800082665D0018699282220110131201101314056CONSIGNACION CONVENIO EMPRESARIAL EFECTI0018600884OPERACIONES EMPRESAR00000000000010000001666612000000067633557321              000000000000000000009455000000000000000000009455000024425C
3      800082665D0018699282220110131201101314056CONSIGNACION CONVENIO EMPRESARIAL EFECTI0018600884OPERACIONES EMPRESAR00000000000010000001007783000000067633557321              000000000000000000009455000000000000000000009455000024127C
3      800082665D0018699282220110131201101314056CONSIGNACION CONVENIO EMPRESARIAL EFECTI0018600884OPERACIONES EMPRESAR00000000000010000001158741000000067633557321              000000000000000000009455000000000000000000009455000024126C
3      800082665D0018699282220110131201101314056CONSIGNACION CONVENIO EMPRESARIAL EFECTI0018600884OPERACIONES EMPRESAR00000000000010000001678830450000067633557321              000000000000000000009455000000000000000000009455000024118C
3      800082665D0018699282220110131201101314056CONSIGNACION CONVENIO EMPRESARIAL EFECTI0018600884OPERACIONES EMPRESAR00000000000010000009157038000000067633557321              000000000000000000009455000000000000000000009455000023629C
3      800082665D0018699282220110131201101314056CONSIGNACION CONVENIO EMPRESARIAL EFECTI0018600884OPERACIONES EMPRESAR00000000000010000001505423000000067633557321              000000000000000000009455000000000000000000009455000023628C
3      800082665D0018699282220110131201101314056CONSIGNACION CONVENIO EMPRESARIAL EFECTI0018600884OPERACIONES EMPRESAR00000000000010000002436574000000067633557321              000000000000000000009455000000000000000000009455000020773C
3      800082665D0018699282220110131201101314056CONSIGNACION CONVENIO EMPRESARIAL EFECTI0018600884OPERACIONES EMPRESAR00000000000010000001082874000000067633557321              000000000000000000009455000000000000000000009455000020772C
3      800082665D0018699282220110131201101314056CONSIGNACION CONVENIO EMPRESARIAL EFECTI0018600884OPERACIONES EMPRESAR00000000000010000000283250000000067633557321              000000000000000000009455000000000000000000009455000020717C
3      800082665D0018699282220110131201101314056CONSIGNACION CONVENIO EMPRESARIAL EFECTI0018600884OPERACIONES EMPRESAR00000000000010000000659030000000067633557321              000000000000000000009455000000000000000000009455000020628C
3      800082665D0018699282220110131201101314056CONSIGNACION CONVENIO EMPRESARIAL EFECTI0018600427LA DORADA           00000000000010000000220935000000067633557321              000000000000000010166238000000000000000000053294000019782C
3      800082665D0018699282220110131201101314065CONSIGNACION CONVENIO EMPRESARIAL CANJE 0018600344SANTA ROSA DE CABAL 00000000676020000005099565000000067633557321              000000000000008914800334000000000000000000066682000017332C
3      800082665D0018699282220110131201101314056CONSIGNACION CONVENIO EMPRESARIAL EFECTI0018600066OFICINA SAN ROQUE - 00000000000010000000114210000000067633557321              000000000000000000000822000000000000000000000822000017244C
3      800082665D0018699282220110131201101314056CONSIGNACION CONVENIO EMPRESARIAL EFECTI0018600066OFICINA SAN ROQUE - 00000000000010000000773715000000067633557321              000000000000000000000822000000000000000000000822000017221C
3      800082665D0018699282220110131201101314056CONSIGNACION CONVENIO EMPRESARIAL EFECTI0018600816YOPAL               00000000000010000000220933000000067633557321              000000000000000086087794000000000000000000009029000015726C
3      800082665D0018699282220110131201101314056CONSIGNACION CONVENIO EMPRESARIAL EFECTI0018600816YOPAL               00000000000010000000024549000000067633557321              000000000000000051626693000000000000000000001018000015721C
3      800082665D0018699282220110131201101314056CONSIGNACION CONVENIO EMPRESARIAL EFECTI0018600816YOPAL               00000000000010000000073650000000067633557321              000000000000000000000236000000000000000000073650000015691C
3      800082665D0018699282220110131201101314056CONSIGNACION CONVENIO EMPRESARIAL EFECTI0018600427LA DORADA           00000000000010000000136648000000067633557321              000000000000001077968862000000000000000002090229000014405C
3      800082665D0018699282220110131201101314056CONSIGNACION CONVENIO EMPRESARIAL EFECTI0018600400PAMPLONA            00000000000010000000159979000000067633557321              000000000000008000826750000000000000000054518000000014210C
3      800082665D0018699282220110131201101314056CONSIGNACION CONVENIO EMPRESARIAL EFECTI0018600816YOPAL               00000000000010000000220950000000067633557321              000000000000000000003347000000000000000091011608000014019C
3      800082665D0018699282220110131201101314056CONSIGNACION CONVENIO EMPRESARIAL EFECTI0018600178EL YOPO             00000000000010000000220950000000067633557321              000000000000000017390037000000000000000000125360000013908C
3      800082665D0018699282220110131201101314056CONSIGNACION CONVENIO EMPRESARIAL EFECTI0018600178EL YOPO             00000000000010000000147300000000067633557321              000000000000001118535709000000000000000000003778000012770C
3      800082665D0018699282220110131201101314056CONSIGNACION CONVENIO EMPRESARIAL EFECTI0018600427LA DORADA           00000000000010000000220935000000067633557321              000000000000000071184824000000000000000000052267000004220C
3      800082665D0018699282220110131201101314056CONSIGNACION CONVENIO EMPRESARIAL EFECTI0018600400PAMPLONA            00000000000010000000153979000000067633557321              000000000000000054518000000000000000008000826750000003703C
3      800082665D0018699282220110131201101314056CONSIGNACION CONVENIO EMPRESARIAL EFECTI0018600427LA DORADA           00000000000010000000039277000000067633557321              000000000000000014324976000000000000000000051761000002861C
3      800082665D0018699282220110131201101314056CONSIGNACION CONVENIO EMPRESARIAL EFECTI0018600816YOPAL               00000000000010000000073645000000067633557321              000000000000000000003292000000000000000094512180000002717C
3      800082665D0018699282220110131201101314056CONSIGNACION CONVENIO EMPRESARIAL EFECTI0018600816YOPAL               00000000000010000000073645000000067633557321              000000000000000074825071000000000000000000006398000001536C
3      800082665D0018699282220110129201101294056CONSIGNACION CONVENIO EMPRESARIAL EFECTI0018600119CAICEDONIA          00000000000010000000078553000000067625702021              000000000000008919006606000000000000000076122000000007319C
3      800082665D0018699282220110128201101284056CONSIGNACION CONVENIO EMPRESARIAL EFECTI0018600884OPERACIONES EMPRESAR00000000000010000004147771000000062692959151              000000000000000000009455000000000000000000009455000029582C
3      800082665D0018699282220110128201101284056CONSIGNACION CONVENIO EMPRESARIAL EFECTI0018600884OPERACIONES EMPRESAR00000000000010000003077857000000062692959151              000000000000000000009455000000000000000000009455000029581C
3      800082665D0018699282220110128201101284056CONSIGNACION CONVENIO EMPRESARIAL EFECTI0018600884OPERACIONES EMPRESAR00000000000010000000862813000000062692959151              000000000000000000009455000000000000000000009455000028303C
3      800082665D0018699282220110128201101284056CONSIGNACION CONVENIO EMPRESARIAL EFECTI0018600884OPERACIONES EMPRESAR00000000000010000000747497000000062692959151              000000000000000000009455000000000000000000009455000028302C
3      800082665D0018699282220110128201101284056CONSIGNACION CONVENIO EMPRESARIAL EFECTI0018600884OPERACIONES EMPRESAR00000000000010000002221688150000062692959151              000000000000000000009455000000000000000000009455000028289C
3      800082665D0018699282220110128201101284056CONSIGNACION CONVENIO EMPRESARIAL EFECTI0018600884OPERACIONES EMPRESAR00000000000010000001240588000000062692959151              000000000000000000009455000000000000000000009455000027908C
3      800082665D0018699282220110128201101284056CONSIGNACION CONVENIO EMPRESARIAL EFECTI0018600884OPERACIONES EMPRESAR00000000000010000010409249000000062692959151              000000000000000000009455000000000000000000009455000027907C
3      800082665D0018699282220110128201101284056CONSIGNACION CONVENIO EMPRESARIAL EFECTI0018600884OPERACIONES EMPRESAR00000000000010000000334543000000062692959151              000000000000000000009455000000000000000000009455000027906C
3      800082665D0018699282220110128201101284056CONSIGNACION CONVENIO EMPRESARIAL EFECTI0018600884OPERACIONES EMPRESAR00000000000010000000664575000000062692959151              000000000000000000009455000000000000000000009455000027610C
3      800082665D0018699282220110128201101284056CONSIGNACION CONVENIO EMPRESARIAL EFECTI0018600884OPERACIONES EMPRESAR00000000000010000001634500000000062692959151              000000000000000000000055000000000000000000009455000027609C
3      800082665D0018699282220110128201101284056CONSIGNACION CONVENIO EMPRESARIAL EFECTI0018600884OPERACIONES EMPRESAR00000000000010000002362013000000062692959151              000000000000000000009455000000000000000000009455000027313C
3      800082665D0018699282220110128201101284056CONSIGNACION CONVENIO EMPRESARIAL EFECTI0018600884OPERACIONES EMPRESAR00000000000010000000667569000000062692959151              000000000000000000009455000000000000000000006455000027312C
3      800082665D0018699282220110128201101284056CONSIGNACION CONVENIO EMPRESARIAL EFECTI0018600400PAMPLONA            00000000000010000000073645000000062692959151              000000000000008000826750000000000000000054518000000025152C
3      800082665D0018699282220110128201101284065CONSIGNACION CONVENIO EMPRESARIAL CANJE 0018600159ARAUCA              00000681435020000001616422000000062692959151              000000000000008110367922000000000000000000081001000024958C
3      800082665D0018699282220110128201101284056CONSIGNACION CONVENIO EMPRESARIAL EFECTI0018600427LA DORADA           00000000000010000000220935000000062692959151              000000000000000014190512000000000000000000053292000023616C
3      800082665D0018699282220110128201101284056CONSIGNACION CONVENIO EMPRESARIAL EFECTI0018600427LA DORADA           00000000000010000000220935000000062692959151              000000000000000010186168000000000000000000051752000021947C
3      800082665D0018699282220110128201101284307CREDITO TRASLADO PROPIO TERMI EMPRESARIA0018600186BANCA CORPORATIVA BO0000000000001000000605814926000006269295915                                                               000021841C
3      800082665D0018699282220110128201101284056CONSIGNACION CONVENIO EMPRESARIAL EFECTI0018600119CAICEDONIA          00000000000010000000147290000000062692959151              000000000000008919006606000000000000000076122000000021743C
3      800082665D0018699282220110128201101284056CONSIGNACION CONVENIO EMPRESARIAL EFECTI0018600816YOPAL               00000000000010000000148000000000062692959151              000000000000000009659614000000000000000000002860000018885C
3      800082665D0018699282220110128201101284307CREDITO TRASLADO PROPIO TERMI EMPRESARIA0018600186BANCA CORPORATIVA BO0000000000001000000042439229000006269295915                                                               000018638C
3      800082665D0018699282220110128201101284307CREDITO TRASLADO PROPIO TERMI EMPRESARIA0018600186BANCA CORPORATIVA BO0000000000001000000044799890000006269295915                                                               000018240C
3      800082665D0018699282220110128201101284307CREDITO TRASLADO PROPIO TERMI EMPRESARIA0018600186BANCA CORPORATIVA BO0000000000001000000066820787000006269295915                                                               000016826C
3      800082665D0018699282220110128201101284307CREDITO TRASLADO PROPIO TERMI EMPRESARIA0018600186BANCA CORPORATIVA BO0000000000001000000646622171000006269295915                                                               000014219C
3      800082665D0018699282220110128201101284307CREDITO TRASLADO PROPIO TERMI EMPRESARIA0018600186BANCA CORPORATIVA BO0000000000001000000394889654000006269295915                                                               000014016C
3      800082665D0018699282220110128201101284056CONSIGNACION CONVENIO EMPRESARIAL EFECTI0018600383VENECIA             00000000000010000000073645000000062692959151              000000000000008909807641000000000000008909807641000009234C
3      800082665D0018699282220110128201101284056CONSIGNACION CONVENIO EMPRESARIAL EFECTI0018600066OFICINA SAN ROQUE - 00000000000010000000146205000000062692959151              000000000000000000000822000000000000000000000022000008645C
3      800082665D0018699282220110128201101284056CONSIGNACION CONVENIO EMPRESARIAL EFECTI0018600427LA DORADA           00000000000010000000220935000000062692959151              000000000000000081715488000000000000000000053293000008418C
3      800082665D0018699282220110128201101284056CONSIGNACION CONVENIO EMPRESARIAL EFECTI0018600178EL YOPO             00000000000010000000073650000000062692959151              000000000000000004087244000000000000000000008704000005605C
3      800082665D0018699282220110128201101284056CONSIGNACION CONVENIO EMPRESARIAL EFECTI0018600178EL YOPO             00000000000010000000001237000000062692959151              000000000000000004087244000000000000000000008733000005505C
3      800082665D0018699282220110127201101274056CONSIGNACION CONVENIO EMPRESARIAL EFECTI0018600884OPERACIONES EMPRESAR00000000000010000001966599000000060039179831              000000000000000000000455000000000000000000009455000027575C
3      800082665D0018699282220110127201101274056CONSIGNACION CONVENIO EMPRESARIAL EFECTI0018600884OPERACIONES EMPRESAR00000000000010000001764413000000060039179831              000000000000000000009455000000000000000000009455000027574C
3      800082665D0018699282220110127201101274056CONSIGNACION CONVENIO EMPRESARIAL EFECTI0018600884OPERACIONES EMPRESAR00000000000010000000483738000000060039179831              000000000000000000009455000000000000000000009455000026990C
3      800082665D0018699282220110127201101274056CONSIGNACION CONVENIO EMPRESARIAL EFECTI0018600884OPERACIONES EMPRESAR00000000000010000002801941000000060039179831              000000000000000000009455000000000000000000009455000026989C
3      800082665D0018699282220110127201101274056CONSIGNACION CONVENIO EMPRESARIAL EFECTI0018600884OPERACIONES EMPRESAR00000000000010000002125590000000060039179831              000000000000000000009455000000000000000000009455000026207C
3      800082665D0018699282220110127201101274056CONSIGNACION CONVENIO EMPRESARIAL EFECTI0018600884OPERACIONES EMPRESAR00000000000010000008336929000000060039179831              000000000000000000000455000000000000000000009455000026206C
3      800082665D0018699282220110127201101274056CONSIGNACION CONVENIO EMPRESARIAL EFECTI0018600884OPERACIONES EMPRESAR00000000000010000000689054000000060039179831              000000000000000000009455000000000000000000000455000026205C
3      800082665D0018699282220110127201101274056CONSIGNACION CONVENIO EMPRESARIAL EFECTI0018600884OPERACIONES EMPRESAR00000000000010000002557197000000060039179831              000000000000000000009455000000000000000000000955000025317C
3      800082665D0018699282220110127201101274056CONSIGNACION CONVENIO EMPRESARIAL EFECTI0018600884OPERACIONES EMPRESAR00000000000010000000594862000000060039179831              000000000000000000009455000000000000000000009455000025316C
3      800082665D0018699282220110127201101274056CONSIGNACION CONVENIO EMPRESARIAL EFECTI0018600884OPERACIONES EMPRESAR00000000000010000000835588000000060039179831              000000000000000000009455000000000000000000009455000025014C
3      800082665D0018699282220110127201101274056CONSIGNACION CONVENIO EMPRESARIAL EFECTI0018600884OPERACIONES EMPRESAR00000000000010000000876750000000060039179831              000000000000000000009455000000000000000000009455000025013C
3      800082665D0018699282220110127201101274056CONSIGNACION CONVENIO EMPRESARIAL EFECTI0018600884OPERACIONES EMPRESAR00000000000010000000700537200000060039179831              000000000000000000009455000000000000000000009455000025008C
3      800082665D0018699282220110127201101274056CONSIGNACION CONVENIO EMPRESARIAL EFECTI0018600427LA DORADA           00000000000010000000073645000000060039179831              000000000000000080499338000000000000000000053286000024067C
3      800082665D0018699282220110127201101274056CONSIGNACION CONVENIO EMPRESARIAL EFECTI0018600816YOPAL               00000000000010000000147300000000060039179831              000000000000000007153729000000000000000000006925000021073C
3      800082665D0018699282220110127201101274056CONSIGNACION CONVENIO EMPRESARIAL EFECTI0018600427LA DORADA           00000000000010000000220935000000060039179831              000000000000000003134048000000000000000000055442000017467C
3      800082665D0018699282220110127201101274056CONSIGNACION CONVENIO EMPRESARIAL EFECTI0018600427LA DORADA           00000000000010000000073645000000060039179831              000000000000001054549897000000000000000000053287000017121C
3      800082665D0018699282220110127201101274056CONSIGNACION CONVENIO EMPRESARIAL EFECTI0018600400PAMPLONA            00000000000010000000073645000000060039179831              000000000000008000826750000000000000000054518000000017119C
3      800082665D0018699282220110127201101274056CONSIGNACION CONVENIO EMPRESARIAL EFECTI0018600427LA DORADA           00000000000010000000331403000000060039179831              000000000000000010187590000000000000000002862497000017044C
3      800082665D0018699282220110127201101274056CONSIGNACION CONVENIO EMPRESARIAL EFECTI0018600178EL YOPO             00000000000010000000078600000000060039179831              000000000000000023936684000000000000000000124163000014716C
3      800082665D0018699282220110127201101274056CONSIGNACION CONVENIO EMPRESARIAL EFECTI0018600066OFICINA SAN ROQUE - 00000000000010000000459446000000060039179831              000000000000000000000822000000000000000000000022000008617C
3      800082665D0018699282220110127201101274056CONSIGNACION CONVENIO EMPRESARIAL EFECTI0018600178EL YOPO             00000000000010000000073700000000060039179831              000000000000000009656897000000000000000000124164000008504C
3      800082665D0018699282220110127201101274056CONSIGNACION CONVENIO EMPRESARIAL EFECTI0018600427LA DORADA           00000000000010000000220935000000060039179831              000000000000000010187790000000000000000000055439000008405C
3      800082665D0018699282220110127201101274056CONSIGNACION CONVENIO EMPRESARIAL EFECTI0018600816YOPAL               00000000000010000000241200000000060039179831              000000000000000009432745000000000000000000000002000007483C
3      800082665D0018699282220110127201101274056CONSIGNACION CONVENIO EMPRESARIAL EFECTI0018600427LA DORADA           00000000000010000000220935000000060039179831              000000000000000010170032000000000000000000055070000006948C
3      800082665D0018699282220110127201101274056CONSIGNACION CONVENIO EMPRESARIAL EFECTI0018600119CAICEDONIA          00000000000010000000441861000000060039179831              000000000000008919006606000000000000000076122000000006310C
3      800082665D0018699282220110127201101274056CONSIGNACION CONVENIO EMPRESARIAL EFECTI0018600178EL YOPO             00000000000010000000073700000000060039179831              000000000000000047442043000000000000000000001453000005741C
3      800082665D0018699282220110127201101274056CONSIGNACION CONVENIO EMPRESARIAL EFECTI0018600400PAMPLONA            00000000000010000000073645000000060039179831              000000000000000054518000000000000000008000826750000005274C
3      800082665D0018699282220110126201101264056CONSIGNACION CONVENIO EMPRESARIAL EFECTI0018600884OPERACIONES EMPRESAR00000000000010000001035405000000056994773301              000000000000000000009455000000000000000000009545000026166C
3      800082665D0018699282220110126201101264056CONSIGNACION CONVENIO EMPRESARIAL EFECTI0018600884OPERACIONES EMPRESAR00000000000010000001865680000000056994773301              000000000000000000009455000000000000000000009455000026165C
3      800082665D0018699282220110126201101264056CONSIGNACION CONVENIO EMPRESARIAL EFECTI0018600884OPERACIONES EMPRESAR00000000000010000001549227000000056994773301              000000000000000000009455000000000000000000009455000025277C
3      800082665D0018699282220110126201101264056CONSIGNACION CONVENIO EMPRESARIAL EFECTI0018600884OPERACIONES EMPRESAR00000000000010000000846512000000056994773301              000000000000000000009455000000000000000000009455000025276C
3      800082665D0018699282220110126201101264056CONSIGNACION CONVENIO EMPRESARIAL EFECTI0018600884OPERACIONES EMPRESAR00000000000010000002350166000000056994773301              000000000000000000009445000000000000000000009455000024581C
3      800082665D0018699282220110126201101264056CONSIGNACION CONVENIO EMPRESARIAL EFECTI0018600884OPERACIONES EMPRESAR00000000000010000004128434000000056994773301              000000000000000000009455000000000000000000009455000024580C
3      800082665D0018699282220110126201101264056CONSIGNACION CONVENIO EMPRESARIAL EFECTI0018600884OPERACIONES EMPRESAR00000000000010000001012179000000056994773301              000000000000000000009455000000000000000000009455000024481C
3      800082665D0018699282220110126201101264056CONSIGNACION CONVENIO EMPRESARIAL EFECTI0018600884OPERACIONES EMPRESAR00000000000010000001313257000000056994773301              000000000000000000009455000000000000000000009455000024480C
3      800082665D0018699282220110126201101264056CONSIGNACION CONVENIO EMPRESARIAL EFECTI0018600884OPERACIONES EMPRESAR00000000000010000001789828000000056994773301              000000000000000000009455000000000000000000009455000024283C
3      800082665D0018699282220110126201101264056CONSIGNACION CONVENIO EMPRESARIAL EFECTI0018600884OPERACIONES EMPRESAR00000000000010000010493699000000056994773301              000000000000000000009455000000000000000000009455000024282C
3      800082665D0018699282220110126201101264056CONSIGNACION CONVENIO EMPRESARIAL EFECTI0018600884OPERACIONES EMPRESAR00000000000010000000747954000000056994773301              000000000000000000009455000000000000000000009455000024281C
3      800082665D0018699282220110126201101264056CONSIGNACION CONVENIO EMPRESARIAL EFECTI0018600400PAMPLONA            00000000000010000000073645000000056994773301              000000000000000054518000000000000000008000826750000023367C
3      800082665D0018699282220110126201101264056CONSIGNACION CONVENIO EMPRESARIAL EFECTI0018600400PAMPLONA            00000000000010000000070812000000056994773301              000000000000008000826750000000000000000054518000000023175C
3      800082665D0018699282220110126201101264056CONSIGNACION CONVENIO EMPRESARIAL EFECTI0018600884OPERACIONES EMPRESAR00000000000010000001921595500000056994773301              000000000000000000009455000000000000000000009455000023133C
3      800082665D0018699282220110126201101264056CONSIGNACION CONVENIO EMPRESARIAL EFECTI0018600400PAMPLONA            00000000000010000000147290000000056994773301              000000000000000054518000000000000000008000826750000022741C
3      800082665D0018699282220110126201101264056CONSIGNACION CONVENIO EMPRESARIAL EFECTI0018600816YOPAL               00000000000010000000073700000000056994773301              000000000000000009521888000000000000000000006109000022134C
3      800082665D0018699282220110126201101264056CONSIGNACION CONVENIO EMPRESARIAL EFECTI0018600144CARTAGO             00000000000010000000147290000000056994773301              000000000000008919006606000000000000000076122000000017899C
3      800082665D0018699282220110126201101264056CONSIGNACION CONVENIO EMPRESARIAL EFECTI0018600427LA DORADA           00000000000010000000220935000000056994773301              000000000000000080829972000000000000000000052265000017591C
3      800082665D0018699282220110126201101264056CONSIGNACION CONVENIO EMPRESARIAL EFECTI0018600427LA DORADA           00000000000010000000220935000000056994773301              000000000000000079414989000000000000000000055071000008320C
3      800082665D0018699282220110126201101264056CONSIGNACION CONVENIO EMPRESARIAL EFECTI0018600119CAICEDONIA          00000000000010000000039276000000056994773301              000000000000008919006606000000000000000076122000000008124C
3      800082665D0018699282220110126201101264056CONSIGNACION CONVENIO EMPRESARIAL EFECTI0018600066OFICINA SAN ROQUE - 00000000000010000000320557000000056994773301              000000000000000000028722000000000000000000002822000006611C
3      800082665D0018699282220110126201101264056CONSIGNACION CONVENIO EMPRESARIAL EFECTI0018600178EL YOPO             00000000000010000000007365000000056994773301              000000000000000047434335000000000000000000001354000006510C
3      800082665D0018699282220110126201101264056CONSIGNACION CONVENIO EMPRESARIAL EFECTI0018600324ROLDANILLO          00000000000010000000068323750000056994773301              000000000000000000210506000000000000000000000001000006212C
3      800082665D0018699282220110125201101254056CONSIGNACION CONVENIO EMPRESARIAL EFECTI0018600884OPERACIONES EMPRESAR00000000000010000002609543000000054093832451              000000000000000000009455000000000000000000009455000027807C
3      800082665D0018699282220110125201101254056CONSIGNACION CONVENIO EMPRESARIAL EFECTI0018600884OPERACIONES EMPRESAR00000000000010000010178644000000054093832451              000000000000000000009455000000000000000000009455000027806C
3      800082665D0018699282220110125201101254056CONSIGNACION CONVENIO EMPRESARIAL EFECTI0018600884OPERACIONES EMPRESAR00000000000010000000980430000000054093832451              000000000000000000009455000000000000000000009455000027707C
3      800082665D0018699282220110125201101254056CONSIGNACION CONVENIO EMPRESARIAL EFECTI0018600884OPERACIONES EMPRESAR00000000000010000000984284000000054093832451              000000000000000000009455000000000000000000009455000024942C
3      800082665D0018699282220110125201101254056CONSIGNACION CONVENIO EMPRESARIAL EFECTI0018600884OPERACIONES EMPRESAR00000000000010000001272182000000054093832451              000000000000000000009455000000000000000000009455000024941C
3      800082665D0018699282220110125201101254056CONSIGNACION CONVENIO EMPRESARIAL EFECTI0018600884OPERACIONES EMPRESAR00000000000010000003143907000000054093832451              000000000000000000009455000000000000000000009455000024854C
3      800082665D0018699282220110125201101254056CONSIGNACION CONVENIO EMPRESARIAL EFECTI0018600884OPERACIONES EMPRESAR00000000000010000002118771000000054093832451              000000000000000000009455000000000000000000009455000024853C
3      800082665D0018699282220110125201101254056CONSIGNACION CONVENIO EMPRESARIAL EFECTI0018600884OPERACIONES EMPRESAR00000000000010000001170764000000054093832451              000000000000000000009455000000000000000000009455000024852C
3      800082665D0018699282220110125201101254056CONSIGNACION CONVENIO EMPRESARIAL EFECTI0018600884OPERACIONES EMPRESAR00000000000010000000566508000000054093832451              000000000000000000009455000000000000000000009455000024851C
3      800082665D0018699282220110125201101254056CONSIGNACION CONVENIO EMPRESARIAL EFECTI0018600884OPERACIONES EMPRESAR00000000000010000000857444500000054093832451              000000000000000000009455000000000000000000009455000024844C
3      800082665D0018699282220110125201101254056CONSIGNACION CONVENIO EMPRESARIAL EFECTI0018600884OPERACIONES EMPRESAR00000000000010000001741959000000054093832451              000000000000000000009455000000000000000000009455000024668C
3      800082665D0018699282220110125201101254056CONSIGNACION CONVENIO EMPRESARIAL EFECTI0018600884OPERACIONES EMPRESAR00000000000010000001217862000000054093832451              000000000000000000009455000000000000000000009455000024457C
3      800082665D0018699282220110125201101254056CONSIGNACION CONVENIO EMPRESARIAL EFECTI0018600119CAICEDONIA          00000000000010000000220930000000054093832451              000000000000008919006606000000000000000076122000000020953C
3      800082665D0018699282220110125201101254056CONSIGNACION CONVENIO EMPRESARIAL EFECTI0018600400PAMPLONA            00000000000010000000081857000000054093832451              000000000000000000054518000000000000000080008675000017335C
3      800082665D0018699282220110125201101254056CONSIGNACION CONVENIO EMPRESARIAL EFECTI0018600400PAMPLONA            00000000000010000000050907000000054093832451              000000000000008000826750000000000000000054518000000017280C
3      800082665D0018699282220110125201101254056CONSIGNACION CONVENIO EMPRESARIAL EFECTI0018600119CAICEDONIA          00000000000010000000147290000000054093832451              000000000000008919006606000000000000000076122000000009350C
3      800082665D0018699282220110125201101254056CONSIGNACION CONVENIO EMPRESARIAL EFECTI0018600066OFICINA SAN ROQUE - 00000000000010000000416238000000054093832451              000000000000000000000822000000000000000000000822000008337C
3      800082665D0018699282220110125201101254056CONSIGNACION CONVENIO EMPRESARIAL EFECTI0018600119CAICEDONIA          00000000000010000000078553000000054093832451              000000000000008919006606000000000000000076122000000008158C
3      800082665D0018699282220110125201101254056CONSIGNACION CONVENIO EMPRESARIAL EFECTI0018600400PAMPLONA            00000000000010000000073645000000054093832451              000000000000008000826750000000000000000054518000000006590C
3      800082665D0018699282220110125201101254056CONSIGNACION CONVENIO EMPRESARIAL EFECTI0018600427LA DORADA           00000000000010000000072930000000054093832451              000000000000000004266780000000000000000000494827000006549C
3      800082665D0018699282220110125201101254056CONSIGNACION CONVENIO EMPRESARIAL EFECTI0018600816YOPAL               00000000000010000000073700000000054093832451              000000000000000074752808000000000000000000006640000006271C
3      800082665D0018699282220110125201101254056CONSIGNACION CONVENIO EMPRESARIAL EFECTI0018600119CAICEDONIA          00000000000010000000147290000000054093832451              000000000000008919006606000000000000000076122000000006223C
3      800082665D0018699282220110125201101254056CONSIGNACION CONVENIO EMPRESARIAL EFECTI0018600427LA DORADA           00000000000010000000073645000000054093832451              000000000000000010184840000000000000000000053289000006073C
3      800082665D0018699282220110125201101254056CONSIGNACION CONVENIO EMPRESARIAL EFECTI0018600400PAMPLONA            00000000000010000000073645000000054093832451              000000000000008000826750000000000000000054518000000006063C
3      800082665D0018699282220110125201101254056CONSIGNACION CONVENIO EMPRESARIAL EFECTI0018600427LA DORADA           00000000000010000000072930000000054093832451              000000000000000004266780000000000000000000494826000006042C
3      800082665D0018699282220110125201101254056CONSIGNACION CONVENIO EMPRESARIAL EFECTI0018600427LA DORADA           00000000000010000000220935000000054093832451              000000000000000010171588000000000000000000055441000005818C
3      800082665D0018699282220110125201101254056CONSIGNACION CONVENIO EMPRESARIAL EFECTI0018600400PAMPLONA            00000000000010000000073645000000054093832451              000000000000000054518000000000000000008000826750000005776C
3      800082665D0018699282220110125201101254056CONSIGNACION CONVENIO EMPRESARIAL EFECTI0018600427LA DORADA           00000000000010000000073645000000054093832451              000000000000000071482200000000000000000000053288000005712C
3      800082665D0018699282220110125201101254056CONSIGNACION CONVENIO EMPRESARIAL EFECTI0018600400PAMPLONA            00000000000010000000141625000000054093832451              000000000000000054518000000000000000008000826750000005679C
3      800082665D0018699282220110125201101254056CONSIGNACION CONVENIO EMPRESARIAL EFECTI0018600178EL YOPO             00000000000010000000073700000000054093832451              000000000000001118541000000000000000000000124378000005435C
3      800082665D0018699282220110124201101244056CONSIGNACION CONVENIO EMPRESARIAL EFECTI0018600884OPERACIONES EMPRESAR00000000000010000000954832000000108981226961              000000000000000000009455000000000000000000009455000020216C
3      800082665D0018699282220110124201101244056CONSIGNACION CONVENIO EMPRESARIAL EFECTI0018600884OPERACIONES EMPRESAR00000000000010000001110349000000108981226961              000000000000000000009455000000000000000000009455000020215C
3      800082665D0018699282220110124201101244056CONSIGNACION CONVENIO EMPRESARIAL EFECTI0018600884OPERACIONES EMPRESAR00000000000010000000909065000000108981226961              000000000000000000009455000000000000000000009455000020123C
3      800082665D0018699282220110124201101244056CONSIGNACION CONVENIO EMPRESARIAL EFECTI0018600884OPERACIONES EMPRESAR00000000000010000000809194000000108981226961              000000000000000000009455000000000000000000009455000020122C
3      800082665D0018699282220110124201101244056CONSIGNACION CONVENIO EMPRESARIAL EFECTI0018600884OPERACIONES EMPRESAR00000000000010000002123468600000108981226961              000000000000000000009455000000000000000000009455000020116C
3      800082665D0018699282220110124201101244056CONSIGNACION CONVENIO EMPRESARIAL EFECTI0018600884OPERACIONES EMPRESAR00000000000010000000075533000000108981226961              000000000000000000009455000000000000000000009455000020104C
3      800082665D0018699282220110124201101244056CONSIGNACION CONVENIO EMPRESARIAL EFECTI0018600884OPERACIONES EMPRESAR00000000000010000000141625000000108981226961              000000000000000000009455000000000000000000009455000020103C
3      800082665D0018699282220110124201101244056CONSIGNACION CONVENIO EMPRESARIAL EFECTI0018600884OPERACIONES EMPRESAR00000000000010000001427075000000108981226961              000000000000000000009455000000000000000000009455000020018C
3      800082665D0018699282220110124201101244056CONSIGNACION CONVENIO EMPRESARIAL EFECTI0018600884OPERACIONES EMPRESAR00000000000010000002193621000000108981226961              000000000000000000009465000000000000000000009455000020017C
3      800082665D0018699282220110124201101244056CONSIGNACION CONVENIO EMPRESARIAL EFECTI0018600884OPERACIONES EMPRESAR00000000000010000005903833000000108981226961              000000000000000000009455000000000000000000009455000019721C
3      800082665D0018699282220110124201101244056CONSIGNACION CONVENIO EMPRESARIAL EFECTI0018600884OPERACIONES EMPRESAR00000000000010000004153283000000108981226961              000000000000000000009455000000000000000000009455000019720C
3      800082665D0018699282220110124201101244056CONSIGNACION CONVENIO EMPRESARIAL EFECTI0018600884OPERACIONES EMPRESAR00000000000010000000141625000000108981226961              000000000000000000009455000000000000000000009455000019701C
3      800082665D0018699282220110124201101244056CONSIGNACION CONVENIO EMPRESARIAL EFECTI0018600884OPERACIONES EMPRESAR00000000000010000002681255000000108981226961              000000000000000000009455000000000000000000009455000019344C
3      800082665D0018699282220110124201101244056CONSIGNACION CONVENIO EMPRESARIAL EFECTI0018600884OPERACIONES EMPRESAR00000000000010000008595389000000108981226961              000000000000000000009455000000000000000000009455000019343C
3      800082665D0018699282220110124201101244056CONSIGNACION CONVENIO EMPRESARIAL EFECTI0018600884OPERACIONES EMPRESAR00000000000010000000716117000000108981226961              000000000000000000009455000000000000000000009455000019342C
3      800082665D0018699282220110124201101244056CONSIGNACION CONVENIO EMPRESARIAL EFECTI0018600884OPERACIONES EMPRESAR00000000000010000000141625000000108981226961              000000000000000000009455000000000000000000009455000019325C
3      800082665D0018699282220110124201101244056CONSIGNACION CONVENIO EMPRESARIAL EFECTI0018600427LA DORADA           00000000000010000000039277000000108981226961              000000000000000010165743000000000000000000053285000018964C
3      800082665D0018699282220110124201101244056CONSIGNACION CONVENIO EMPRESARIAL EFECTI0018600816YOPAL               00000000000010000000073700000000108981226961              000000000000000004214523000000000000000000006471000018073C
3      800082665D0018699282220110124201101244056CONSIGNACION CONVENIO EMPRESARIAL EFECTI0018600427LA DORADA           00000000000010000000220935000000108981226961              000000000000000010174421000000000000000000053290000014079C
3      800082665D0018699282220110124201101241308DEBITO TRASLADO PROPIO TERM EMPRESARIAL 0018600186BANCA CORPORATIVA BO0000000000001000058296946865000010898122696                                                               000009827D
3      800082665D0018699282220110124201101244056CONSIGNACION CONVENIO EMPRESARIAL EFECTI0018600427LA DORADA           00000000000010000000220935000000108981226961              000000000000001032369690000000000000000000052266000004375C
3      800082665D0018699282220110124201101244056CONSIGNACION CONVENIO EMPRESARIAL EFECTI0018600816YOPAL               00000000000010000000073700000000108981226961              000000000000000047435211000000000000000000003594000003063C
3      800082665D0018699282220110124201101244056CONSIGNACION CONVENIO EMPRESARIAL EFECTI0018600178EL YOPO             00000000000010000000073700000000108981226961              000000000000000047427980000000000000000000009674000002856C
3      800082665D0018699282220110124201101244056CONSIGNACION CONVENIO EMPRESARIAL EFECTI0018600427LA DORADA           00000000000010000000220935000000108981226961              000000000000000015454040000000000000000000055072000001369C
3      800082665D0018699282220110124201101244056CONSIGNACION CONVENIO EMPRESARIAL EFECTI0018600400PAMPLONA            00000000000010000000147290000000108981226961              000000000000000054518000000000000000008000826750000001349C
3      800082665D0018699282220110124201101244056CONSIGNACION CONVENIO EMPRESARIAL EFECTI0018600400PAMPLONA            00000000000010000000039277000000108981226961              000000000000000054518000000000000000008000826750000001330C
3      800082665D0018699282220110124201101244056CONSIGNACION CONVENIO EMPRESARIAL EFECTI0018600400PAMPLONA            00000000000010000000147290000000108981226961              000000000000000054518000000000000000000800826750000001179C
3      800082665D0018699282220110124201101244056CONSIGNACION CONVENIO EMPRESARIAL EFECTI0018600066OFICINA SAN ROQUE - 00000000000010000000760595000000108981226961              000000000000000000000822000000000000000000000822000000992C
3      800082665D0018699282220110122201101224056CONSIGNACION CONVENIO EMPRESARIAL EFECTI0018600119CAICEDONIA          00000000000010000000220950000000108959131961              000000000000008919006606000000000000000076122000000006218C
3      800082665D0018699282220110121201101214056CONSIGNACION CONVENIO EMPRESARIAL EFECTI0018600884OPERACIONES EMPRESAR00000000000010000001858773000000104560550761              000000000000000000009455000000000000000000009455000026222C
3      800082665D0018699282220110121201101214056CONSIGNACION CONVENIO EMPRESARIAL EFECTI0018600884OPERACIONES EMPRESAR00000000000010000008060164000000104560550761              000000000000000000009455000000000000000000009455000026221C
3      800082665D0018699282220110121201101214056CONSIGNACION CONVENIO EMPRESARIAL EFECTI0018600884OPERACIONES EMPRESAR00000000000010000000681855000000104560550761              000000000000000000009455000000000000000000009455000026220C
3      800082665D0018699282220110121201101214056CONSIGNACION CONVENIO EMPRESARIAL EFECTI0018600884OPERACIONES EMPRESAR00000000000010000001008248000000104560550761              000000000000000000009455000000000000000000009455000026024C
3      800082665D0018699282220110121201101214056CONSIGNACION CONVENIO EMPRESARIAL EFECTI0018600884OPERACIONES EMPRESAR00000000000010000002399962000000104560550761              000000000000000000009455000000000000000000009455000026023C
3      800082665D0018699282220110121201101214056CONSIGNACION CONVENIO EMPRESARIAL EFECTI0018600884OPERACIONES EMPRESAR00000000000010000000745971000000104560550761              000000000000000000009455000000000000000000009455000025327C
3      800082665D0018699282220110121201101214056CONSIGNACION CONVENIO EMPRESARIAL EFECTI0018600884OPERACIONES EMPRESAR00000000000010000001437148000000104560550761              000000000000000000009455000000000000000000009455000025326C
3      800082665D0018699282220110121201101214056CONSIGNACION CONVENIO EMPRESARIAL EFECTI0018600884OPERACIONES EMPRESAR00000000000010000001988382000000104560550761              000000000000000000009455000000000000000000009455000025320C
3      800082665D0018699282220110121201101214056CONSIGNACION CONVENIO EMPRESARIAL EFECTI0018600884OPERACIONES EMPRESAR00000000000010000000606002000000104560550761              000000000000000000009455000000000000000000009455000025130C
3      800082665D0018699282220110121201101214056CONSIGNACION CONVENIO EMPRESARIAL EFECTI0018600884OPERACIONES EMPRESAR00000000000010000002682629000000104560550761              000000000000000000009455000000000000000000009455000025129C
3      800082665D0018699282220110121201101214056CONSIGNACION CONVENIO EMPRESARIAL EFECTI0018600884OPERACIONES EMPRESAR00000000000010000002295139000000104560550761              000000000000000000009455000000000000000000009455000024731C
3      800082665D0018699282220110121201101214056CONSIGNACION CONVENIO EMPRESARIAL EFECTI0018600884OPERACIONES EMPRESAR00000000000010000003528466000000104560550761              000000000000000000009455000000000000000000009455000024730C
3      800082665D0018699282220110121201101214056CONSIGNACION CONVENIO EMPRESARIAL EFECTI0018600816YOPAL               00000000000010000000073650000000104560550761              000000000000000009653351000000000000000000003685000022346C
3      800082665D0018699282220110121201101214056CONSIGNACION CONVENIO EMPRESARIAL EFECTI0018600178EL YOPO             00000000000010000000147300000000104560550761              000000000000000007366675000000000000000000124569000022195C
3      800082665D0018699282220110121201101214056CONSIGNACION CONVENIO EMPRESARIAL EFECTI0018600178EL YOPO             00000000000010000000073700000000104560550761              000000000000001118545231000000000000000000009041000021912C
3      800082665D0018699282220110121201101214065CONSIGNACION CONVENIO EMPRESARIAL CANJE 0018600282MELGAR              00000106361020000016306387000000104560550761              000000000000008907019334000000000000000800082665000020351C
3      800082665D0018699282220110121201101214056CONSIGNACION CONVENIO EMPRESARIAL EFECTI0018600427LA DORADA           00000000000010000000073645000000104560550761              000000000000000010180462000000000000000000052264000018366C
3      800082665D0018699282220110121201101214056CONSIGNACION CONVENIO EMPRESARIAL EFECTI0018600427LA DORADA           00000000000010000000220935000000104560550761              000000000000001121831065000000000000000000055431000018234C
3      800082665D0018699282220110121201101211308DEBITO TRASLADO PROPIO TERM EMPRESARIAL 0018600186BANCA CORPORATIVA BO0000000000001000000375321200000010456055076                                                               000017641D
3      800082665D0018699282220110121201101214056CONSIGNACION CONVENIO EMPRESARIAL EFECTI0018600178EL YOPO             00000000000010000000073700000000104560550761              000000000000000007959844000000000000000000003650000016659C
3      800082665D0018699282220110121201101214056CONSIGNACION CONVENIO EMPRESARIAL EFECTI0018600816YOPAL               00000000000010000000147300000000104560550761              000000000000000074085679000000000000000000009618000008633C
3      800082665D0018699282220110121201101214056CONSIGNACION CONVENIO EMPRESARIAL EFECTI0018600816YOPAL               00000000000010000000073700000000104560550761              000000000000000069187577000000000000000000003644000008628C
3      800082665D0018699282220110121201101214056CONSIGNACION CONVENIO EMPRESARIAL EFECTI0018600816YOPAL               00000000000010000000073700000000104560550761              000000000000000009434624000000000000000000003679000008371C
3      800082665D0018699282220110121201101214065CONSIGNACION CONVENIO EMPRESARIAL CANJE 0018600241LA VIRGINIA         00009320520020000002656817000000104560550761              000000000000008914800271000000000000000000066400000007319C
3      800082665D0018699282220110121201101214056CONSIGNACION CONVENIO EMPRESARIAL EFECTI0018600427LA DORADA           00000000000010000000039277000000104560550761              000000000000001053797243000000000000000000055434000007201C
3      800082665D0018699282220110121201101214056CONSIGNACION CONVENIO EMPRESARIAL EFECTI0018600178EL YOPO             00000000000010000000220950000000104560550761              000000000000000074814361000000000000000000006204000006393C
3      800082665D0018699282220110121201101214056CONSIGNACION CONVENIO EMPRESARIAL EFECTI0018600066OFICINA SAN ROQUE - 00000000000010000000265224000000104560550761              000000000000000000000822000000000000000000000822000005014C
3      800082665D0018699282220110120201101204056CONSIGNACION CONVENIO EMPRESARIAL EFECTI0018600884OPERACIONES EMPRESAR00000000000010000000110468000000102007188561              000000000000000000009455000000000000000000009455000031417C
3      800082665D0018699282220110120201101204056CONSIGNACION CONVENIO EMPRESARIAL EFECTI0018600884OPERACIONES EMPRESAR00000000000010000001082189000000102007188561              000000000000000000009455000000000000000000009455000031322C
3      800082665D0018699282220110120201101204056CONSIGNACION CONVENIO EMPRESARIAL EFECTI0018600884OPERACIONES EMPRESAR00000000000010000000627854000000102007188561              000000000000000000009455000000000000000000009455000031321C
3      800082665D0018699282220110120201101204056CONSIGNACION CONVENIO EMPRESARIAL EFECTI0018600884OPERACIONES EMPRESAR00000000000010000000487520000000102007188561              000000000000000000009455000000000000000000009455000031307C
3      800082665D0018699282220110120201101204056CONSIGNACION CONVENIO EMPRESARIAL EFECTI0018600884OPERACIONES EMPRESAR00000000000010000001468922000000102007188561              000000000000000000009455000000000000000000009455000030924C
3      800082665D0018699282220110120201101204056CONSIGNACION CONVENIO EMPRESARIAL EFECTI0018600884OPERACIONES EMPRESAR00000000000010000001357056000000102007188561              000000000000000000009455000000000000000000009455000030923C
3      800082665D0018699282220110120201101204056CONSIGNACION CONVENIO EMPRESARIAL EFECTI0018600884OPERACIONES EMPRESAR00000000000010000001470255000000102007188561              000000000000000000009455000000000000000000009455000030631C
3      800082665D0018699282220110120201101204056CONSIGNACION CONVENIO EMPRESARIAL EFECTI0018600884OPERACIONES EMPRESAR00000000000010000011024994000000102007188561              000000000000000000009455000000000000000000009455000030630C
3      800082665D0018699282220110120201101204056CONSIGNACION CONVENIO EMPRESARIAL EFECTI0018600884OPERACIONES EMPRESAR00000000000010000001200013000000102007188561              000000000000000000009455000000000000000000009455000030629C
3      800082665D0018699282220110120201101204056CONSIGNACION CONVENIO EMPRESARIAL EFECTI0018600884OPERACIONES EMPRESAR00000000000010000000298570000000102007188561              000000000000000000009455000000000000000000009455000030628C
3      800082665D0018699282220110120201101204056CONSIGNACION CONVENIO EMPRESARIAL EFECTI0018600816YOPAL               00000000000010000000147300000000102007188561              000000000000000080363595000000000000000000006367000023611C
3      800082665D0018699282220110120201101204056CONSIGNACION CONVENIO EMPRESARIAL EFECTI0018600816YOPAL               00000000000010000000073700000000102007188561              000000000000000017340470000000000000000000006329000023592C
3      800082665D0018699282220110120201101204056CONSIGNACION CONVENIO EMPRESARIAL EFECTI0018600816YOPAL               00000000000010000000073700000000102007188561              000000000000001118544697000000000000000000002860000023432C
3      800082665D0018699282220110120201101204056CONSIGNACION CONVENIO EMPRESARIAL EFECTI0018600816YOPAL               00000000000010000000073700000000102007188561              000000000000000009526641000000000000000000003599000022913C
3      800082665D0018699282220110120201101204056CONSIGNACION CONVENIO EMPRESARIAL EFECTI0018600884OPERACIONES EMPRESAR00000000000010000000626395000000102007188561              000000000000000000009455000000000000000000009455000022784C
3      800082665D0018699282220110120201101204056CONSIGNACION CONVENIO EMPRESARIAL EFECTI0018600884OPERACIONES EMPRESAR00000000000010000002462433000000102007188561              000000000000000000009455000000000000000000009455000022783C
3      800082665D0018699282220110120201101204056CONSIGNACION CONVENIO EMPRESARIAL EFECTI0018600816YOPAL               00000000000010000000147300000000102007188561              000000000000000017328270000000000000000000005917000008558C
3      800082665D0018699282220110120201101204056CONSIGNACION CONVENIO EMPRESARIAL EFECTI0018600119CAICEDONIA          00000000000010000000141625000000102007188561              000000000000008919006606000000000000000076122000000008259C
3      800082665D0018699282220110120201101204056CONSIGNACION CONVENIO EMPRESARIAL EFECTI0018600066OFICINA SAN ROQUE - 00000000000010000001564224000000102007188561              000000000000000000000822000000000000000000000822000007271C
3      800082665D0018699282220110120201101204056CONSIGNACION CONVENIO EMPRESARIAL EFECTI0018600119CAICEDONIA          00000000000010000000147290000000102007188561              000000000000008919006606000000000000000076122000000006655C
3      800082665D0018699282220110120201101204056CONSIGNACION CONVENIO EMPRESARIAL EFECTI0018600119CAICEDONIA          00000000000010000000141625000000102007188561              000000000000008919006606000000000000000076122000000006654C
3      800082665D0018699282220110120201101204056CONSIGNACION CONVENIO EMPRESARIAL EFECTI0018600119CAICEDONIA          00000000000010000000212437000000102007188561              000000000000008919006606000000000000000076122000000006653C
3      800082665D0018699282220110120201101204056CONSIGNACION CONVENIO EMPRESARIAL EFECTI0018600427LA DORADA           00000000000010000000013390000000102007188561              000000000000000024715842000000000000017380237419000006282C
3      800082665D0018699282220110120201101204056CONSIGNACION CONVENIO EMPRESARIAL EFECTI0018600400PAMPLONA            00000000000010000000147290000000102007188561              000000000000000054518000000000000000008000826750000005681C
3      800082665D0018699282220110120201101204056CONSIGNACION CONVENIO EMPRESARIAL EFECTI0018600427LA DORADA           00000000000010000000220935000000102007188561              000000000000001073322147000000000000000000055429000005505C
3      800082665D0018699282220110120201101204056CONSIGNACION CONVENIO EMPRESARIAL EFECTI0018600119CAICEDONIA          00000000000010000000212437000000102007188561              000000000000008919006606000000000000000076122000000004853C
3      800082665D0018699282220110119201101194056CONSIGNACION CONVENIO EMPRESARIAL EFECTI0018600884OPERACIONES EMPRESAR00000000000010000001466416000000099362320491              000000000000000000009455000000000000000000009455000027584C
3      800082665D0018699282220110119201101194056CONSIGNACION CONVENIO EMPRESARIAL EFECTI0018600884OPERACIONES EMPRESAR00000000000010000009042969000000099362320491              000000000000000000009455000000000000000000009455000027583C
3      800082665D0018699282220110119201101194056CONSIGNACION CONVENIO EMPRESARIAL EFECTI0018600884OPERACIONES EMPRESAR00000000000010000000905824000000099362320491              000000000000000000009455000000000000000000009455000027582C
3      800082665D0018699282220110119201101194056CONSIGNACION CONVENIO EMPRESARIAL EFECTI0018600884OPERACIONES EMPRESAR00000000000010000001011541000000099362320491              000000000000000000009455000000000000000000009455000027581C
3      800082665D0018699282220110119201101194056CONSIGNACION CONVENIO EMPRESARIAL EFECTI0018600884OPERACIONES EMPRESAR00000000000010000001967901000000099362320491              000000000000000000009455000000000000000000009455000026391C
3      800082665D0018699282220110119201101194056CONSIGNACION CONVENIO EMPRESARIAL EFECTI0018600884OPERACIONES EMPRESAR00000000000010000002142603650000099362320491              000000000000000000009455000000000000000000009455000026384C
3      800082665D0018699282220110119201101194056CONSIGNACION CONVENIO EMPRESARIAL EFECTI0018600884OPERACIONES EMPRESAR00000000000010000000393718000000099362320491              000000000000000000009455000000000000000000009455000026192C
3      800082665D0018699282220110119201101194056CONSIGNACION CONVENIO EMPRESARIAL EFECTI0018600884OPERACIONES EMPRESAR00000000000010000002535544000000099362320491              000000000000000000009455000000000000000000009455000025301C
3      800082665D0018699282220110119201101194056CONSIGNACION CONVENIO EMPRESARIAL EFECTI0018600884OPERACIONES EMPRESAR00000000000010000001005842000000099362320491              000000000000000000009455000000000000000000009455000025300C
3      800082665D0018699282220110119201101194056CONSIGNACION CONVENIO EMPRESARIAL EFECTI0018600884OPERACIONES EMPRESAR00000000000010000000360860000000099362320491              000000000000000000009455000000000000000000009455000025299C
3      800082665D0018699282220110119201101194056CONSIGNACION CONVENIO EMPRESARIAL EFECTI0018600884OPERACIONES EMPRESAR00000000000010000000757001000000099362320491              000000000000000000009455000000000000000000009455000025205C
3      800082665D0018699282220110119201101194056CONSIGNACION CONVENIO EMPRESARIAL EFECTI0018600884OPERACIONES EMPRESAR00000000000010000003404590000000099362320491              000000000000000000009455000000000000000000009455000025204C
3      800082665D0018699282220110119201101194056CONSIGNACION CONVENIO EMPRESARIAL EFECTI0018600816YOPAL               00000000000010000000080000000000099362320491              000000000000000074187108000000000000000000005913000021588C
3      800082665D0018699282220110119201101194056CONSIGNACION CONVENIO EMPRESARIAL EFECTI0018600816YOPAL               00000000000010000000078600000000099362320491              000000000000000009658474000000000000000000005460000008793C
3      800082665D0018699282220110119201101194056CONSIGNACION CONVENIO EMPRESARIAL EFECTI0018600427LA DORADA           00000000000010000000039277000000099362320491              000000000000000014326842000000000000000000055421000008165C
3      800082665D0018699282220110119201101194056CONSIGNACION CONVENIO EMPRESARIAL EFECTI0018600119CAICEDONIA          00000000000010000000439350000000099362320491              000000000000008919006606000000000000000076122000000006941C
3      800082665D0018699282220110119201101194056CONSIGNACION CONVENIO EMPRESARIAL EFECTI0018600066OFICINA SAN ROQUE - 00000000000010000000448419000000099362320491              000000000000000000000822000000000000000000000822000006472C
3      800082665D0018699282220110119201101194056CONSIGNACION CONVENIO EMPRESARIAL EFECTI0018600427LA DORADA           00000000000010000000220935000000099362320491              000000000000001054552189000000000000000000055430000006120C
3      800082665D0018699282220110119201101194056CONSIGNACION CONVENIO EMPRESARIAL EFECTI0018600427LA DORADA           00000000000010000000073645000000099362320491              000000000000000010176003000000000000000000055069000006019C
3      800082665D0018699282220110119201101194056CONSIGNACION CONVENIO EMPRESARIAL EFECTI0018600427LA DORADA           00000000000010000000073645000000099362320491              000000000000000014322435000000000000000000055436000005328C
3      800082665D0018699282220110118201101184056CONSIGNACION CONVENIO EMPRESARIAL EFECTI0018600884OPERACIONES EMPRESAR00000000000010000002571515000000096069345991              000000000000000000009455000000000000000000009455000029399C
3      800082665D0018699282220110118201101184056CONSIGNACION CONVENIO EMPRESARIAL EFECTI0018600884OPERACIONES EMPRESAR00000000000010000001188114000000096069345991              000000000000000000009455000000000000000000009455000029398C
3      800082665D0018699282220110118201101184056CONSIGNACION CONVENIO EMPRESARIAL EFECTI0018600884OPERACIONES EMPRESAR00000000000010000001235710000000096069345991              000000000000000000009455000000000000000000009455000029397C
3      800082665D0018699282220110118201101184056CONSIGNACION CONVENIO EMPRESARIAL EFECTI0018600884OPERACIONES EMPRESAR00000000000010000001292305000000096069345991              000000000000000000009455000000000000000000009455000027413C
3      800082665D0018699282220110118201101184056CONSIGNACION CONVENIO EMPRESARIAL EFECTI0018600884OPERACIONES EMPRESAR00000000000010000001043229000000096069345991              000000000000000000009455000000000000000000009455000027412C
3      800082665D0018699282220110118201101184056CONSIGNACION CONVENIO EMPRESARIAL EFECTI0018600884OPERACIONES EMPRESAR00000000000010000000917235000000096069345991              000000000000000000009455000000000000000000009455000027408C
3      800082665D0018699282220110118201101184056CONSIGNACION CONVENIO EMPRESARIAL EFECTI0018600884OPERACIONES EMPRESAR00000000000010000002135893000000096069345991              000000000000000000009455000000000000000000009455000027311C
3      800082665D0018699282220110118201101184056CONSIGNACION CONVENIO EMPRESARIAL EFECTI0018600884OPERACIONES EMPRESAR00000000000010000011004396000000096069345991              000000000000000000009455000000000000000000009455000027234C
3      800082665D0018699282220110118201101184056CONSIGNACION CONVENIO EMPRESARIAL EFECTI0018600884OPERACIONES EMPRESAR00000000000010000000475356000000096069345991              000000000000000000009455000000000000000000009455000027233C
3      800082665D0018699282220110118201101184056CONSIGNACION CONVENIO EMPRESARIAL EFECTI0018600884OPERACIONES EMPRESAR00000000000010000002007905000000096069345991              000000000000000000009455000000000000000000009455000027119C
3      800082665D0018699282220110118201101184056CONSIGNACION CONVENIO EMPRESARIAL EFECTI0018600884OPERACIONES EMPRESAR00000000000010000002248783000000096069345991              000000000000000000009455000000000000000000009455000027118C
3      800082665D0018699282220110118201101184056CONSIGNACION CONVENIO EMPRESARIAL EFECTI0018600884OPERACIONES EMPRESAR00000000000010000000294580000000096069345991              000000000000000000009455000000000000000000009455000027117C
3      800082665D0018699282220110118201101184056CONSIGNACION CONVENIO EMPRESARIAL EFECTI0018600119CAICEDONIA          00000000000010000000039276000000096069345991              000000000000008919006606000000000000000076122000000023268C
3      800082665D0018699282220110118201101184056CONSIGNACION CONVENIO EMPRESARIAL EFECTI0018600066OFICINA SAN ROQUE - 00000000000010000000542286000000096069345991              000000000000000000000822000000000000000000000822000021040C
3      800082665D0018699282220110118201101184056CONSIGNACION CONVENIO EMPRESARIAL EFECTI0018600427LA DORADA           00000000000010000000220935000000096069345991              000000000000001073324536000000000000000000052258000019592C
3      800082665D0018699282220110118201101184056CONSIGNACION CONVENIO EMPRESARIAL EFECTI0018600427LA DORADA           00000000000010000000039277000000096069345991              000000000000001073324536000000000000000000052259000018389C
3      800082665D0018699282220110118201101184056CONSIGNACION CONVENIO EMPRESARIAL EFECTI0018600427LA DORADA           00000000000010000000009450000000096069345991              000000000000000110929350000000000000000002569535000017515C
3      800082665D0018699282220110118201101184056CONSIGNACION CONVENIO EMPRESARIAL EFECTI0018600178EL YOPO             00000000000010000000039300000000096069345991              000000000000000009654081000000000000000002856229000017381C
3      800082665D0018699282220110118201101184056CONSIGNACION CONVENIO EMPRESARIAL EFECTI0018600427LA DORADA           00000000000010000000086907000000096069345991              000000000000000010177511000000000000000002572747000008936C
3      800082665D0018699282220110118201101184056CONSIGNACION CONVENIO EMPRESARIAL EFECTI0018600427LA DORADA           00000000000010000000331403000000096069345991              000000000000000001299478000000000000000000052255000008843C
3      800082665D0018699282220110118201101184056CONSIGNACION CONVENIO EMPRESARIAL EFECTI0018600119CAICEDONIA          00000000000010000000078553000000096069345991              000000000000008919006606000000000000000076122000000008155C
3      800082665D0018699282220110118201101184065CONSIGNACION CONVENIO EMPRESARIAL CANJE 0018600278SANTA BARBARA ANTIOQ00000979182020000004827849000000096069345991              000000000000000811009017000000000000000000654597000007278C
3      800082665D0018699282220110118201101184056CONSIGNACION CONVENIO EMPRESARIAL EFECTI0018600427LA DORADA           00000000000010000000073645000000096069345991              000000000000000007542195000000000000000000055418000006245C
3      800082665D0018699282220110118201101184056CONSIGNACION CONVENIO EMPRESARIAL EFECTI0018600816YOPAL               00000000000010000000147290000000096069345991              000000000000001118552721000000000000000000005312000005484C
3      800082665D0018699282220110118201101184056CONSIGNACION CONVENIO EMPRESARIAL EFECTI0018600119CAICEDONIA          00000000000010000000078553000000096069345991              000000000000008919006606000000000000000076122000000005480C
3      800082665D0018699282220110117201101174056CONSIGNACION CONVENIO EMPRESARIAL EFECTI0018600884OPERACIONES EMPRESAR00000000000010000001423970000000091041987131              000000000000000000009455000000000000000000009455000024229C
3      800082665D0018699282220110117201101174056CONSIGNACION CONVENIO EMPRESARIAL EFECTI0018600884OPERACIONES EMPRESAR00000000000010000000918096000000091041987131              000000000000000000009455000000000000000000009455000024228C
3      800082665D0018699282220110117201101174056CONSIGNACION CONVENIO EMPRESARIAL EFECTI0018600884OPERACIONES EMPRESAR00000000000010000005385718000000091041987131              000000000000000000009455000000000000000000009455000023340C
3      800082665D0018699282220110117201101174056CONSIGNACION CONVENIO EMPRESARIAL EFECTI0018600884OPERACIONES EMPRESAR00000000000010000002772437000000091041987131              000000000000000000009455000000000000000000009455000023339C
3      800082665D0018699282220110117201101174056CONSIGNACION CONVENIO EMPRESARIAL EFECTI0018600884OPERACIONES EMPRESAR00000000000010000002940379000000091041987131              000000000000000000009455000000000000000000009455000023044C
3      800082665D0018699282220110117201101174056CONSIGNACION CONVENIO EMPRESARIAL EFECTI0018600884OPERACIONES EMPRESAR00000000000010000001210575000000091041987131              000000000000000000009455000000000000000000009455000023043C
3      800082665D0018699282220110117201101174056CONSIGNACION CONVENIO EMPRESARIAL EFECTI0018600884OPERACIONES EMPRESAR00000000000010000000861283000000091041987131              000000000000000000009455000000000000000000009455000022974C
3      800082665D0018699282220110117201101174056CONSIGNACION CONVENIO EMPRESARIAL EFECTI0018600884OPERACIONES EMPRESAR00000000000010000002746229000000091041987131              000000000000000000009455000000000000000000009455000022264C
3      800082665D0018699282220110117201101174056CONSIGNACION CONVENIO EMPRESARIAL EFECTI0018600884OPERACIONES EMPRESAR00000000000010000008687598000000091041987131              000000000000000000009455000000000000000000009455000022263C
3      800082665D0018699282220110117201101174056CONSIGNACION CONVENIO EMPRESARIAL EFECTI0018600884OPERACIONES EMPRESAR00000000000010000001153165000000091041987131              000000000000000000009455000000000000000000009455000022262C
3      800082665D0018699282220110117201101174056CONSIGNACION CONVENIO EMPRESARIAL EFECTI0018600884OPERACIONES EMPRESAR00000000000010000001112189650000091041987131              000000000000000000009455000000000000000000009455000022255C
3      800082665D0018699282220110117201101174056CONSIGNACION CONVENIO EMPRESARIAL EFECTI0018600324ROLDANILLO          00000000000010000000025245000000091041987131              000000000000000000210398000000000000000000000001000021586C
3      800082665D0018699282220110117201101174056CONSIGNACION CONVENIO EMPRESARIAL EFECTI0018600884OPERACIONES EMPRESAR00000000000010000000661867000000091041987131              000000000000000000009455000000000000000000009455000021457C
3      800082665D0018699282220110117201101174056CONSIGNACION CONVENIO EMPRESARIAL EFECTI0018600884OPERACIONES EMPRESAR00000000000010000001255633000000091041987131              000000000000000000009455000000000000000000009455000021456C
3      800082665D0018699282220110117201101174056CONSIGNACION CONVENIO EMPRESARIAL EFECTI0018600884OPERACIONES EMPRESAR00000000000010000000095184000000091041987131              000000000000000000009455000000000000000000009455000021402C
3      800082665D0018699282220110117201101174332CR MOV RECIBIDO INTERBANCARIO           0018600222ACH                 0000000000001000000457615100000009104198713                                                               000020728C
3      800082665D0018699282220110117201101174056CONSIGNACION CONVENIO EMPRESARIAL EFECTI0018600427LA DORADA           00000000000010000000090360000000091041987131              000000000000000079677008000000000000000000045749000019469C
3      800082665D0018699282220110117201101174056CONSIGNACION CONVENIO EMPRESARIAL EFECTI0018600884OPERACIONES EMPRESAR00000000000010000000877425000000091041987131              000000000000000000009455000000000000000000004455000019046C
3      800082665D0018699282220110117201101174056CONSIGNACION CONVENIO EMPRESARIAL EFECTI0018600816YOPAL               00000000000010000000073645000000091041987131              000000000000000047428462000000000000000000001268000017505C
3      800082665D0018699282220110117201101174056CONSIGNACION CONVENIO EMPRESARIAL EFECTI0018600066OFICINA SAN ROQUE - 00000000000010000000182250000000091041987131              000000000000000000000822000000000000000000000022000017220C
3      800082665D0018699282220110117201101174056CONSIGNACION CONVENIO EMPRESARIAL EFECTI0018600427LA DORADA           00000000000010000000073645000000091041987131              000000000000000010165159000000000000000000053281000015336C
3      800082665D0018699282220110117201101174056CONSIGNACION CONVENIO EMPRESARIAL EFECTI0018600427LA DORADA           00000000000010000000220935000000091041987131              000000000000001128404414000000000000000000055432000015329C
3      800082665D0018699282220110117201101174056CONSIGNACION CONVENIO EMPRESARIAL EFECTI0018600427LA DORADA           00000000000010000000220935000000091041987131              000000000000001054547152000000000000000002862495000015229C
3      800082665D0018699282220110117201101174056CONSIGNACION CONVENIO EMPRESARIAL EFECTI0018600427LA DORADA           00000000000010000000073645000000091041987131              000000000000000014319828000000000000000000053284000015216C
3      800082665D0018699282220110117201101174056CONSIGNACION CONVENIO EMPRESARIAL EFECTI0018600427LA DORADA           00000000000010000000220935000000091041987131              000000000000000009022122000000000000000000052260000015197C
3      800082665D0018699282220110117201101174056CONSIGNACION CONVENIO EMPRESARIAL EFECTI0018600400PAMPLONA            00000000000010000000073645000000091041987131              000000000000000054518000000000000000008000826750000013520C
3      800082665D0018699282220110117201101174065CONSIGNACION CONVENIO EMPRESARIAL CANJE 0018600136EL OBELISCO - CALI  00000000214020000003276020000000091041987131              000000000000008000826650000000000000000000097255000012213C
3      800082665D0018699282220110117201101174065CONSIGNACION CONVENIO EMPRESARIAL CANJE 0018600502AVENIDA SIMON BOLIVA00000242897020000008089574000000091041987131              000000000000008000993106000000000000000000201012000008693C
3      800082665D0018699282220110117201101174056CONSIGNACION CONVENIO EMPRESARIAL EFECTI0018600400PAMPLONA            00000000000010000000066000000000091041987131              000000000000000054518000000000000000008000826750000003588C
3      800082665D0018699282220110117201101174056CONSIGNACION CONVENIO EMPRESARIAL EFECTI0018600427LA DORADA           00000000000010000000220935000000091041987131              000000000000000010178508000000000000000000055433000003518C
3      800082665D0018699282220110117201101174056CONSIGNACION CONVENIO EMPRESARIAL EFECTI0018600816YOPAL               00000000000010000000212575000000091041987131              000000000000000086073557000000000000000000001205000003474C
3      800082665D0018699282220110117201101174056CONSIGNACION CONVENIO EMPRESARIAL EFECTI0018600427LA DORADA           00000000000010000000220935000000091041987131              000000000000001073322176000000000000000000052256000003351C
3      800082665D0018699282220110117201101174056CONSIGNACION CONVENIO EMPRESARIAL EFECTI0018600427LA DORADA           00000000000010000000220935000000091041987131              000000000000000019331577000000000000000000052257000003324C
3      800082665D0018699282220110117201101174056CONSIGNACION CONVENIO EMPRESARIAL EFECTI0018600427LA DORADA           00000000000010000000016737000000091041987131              000000000000000004437872000000000000000000607328000003320C
3      800082665D0018699282220110117201101174056CONSIGNACION CONVENIO EMPRESARIAL EFECTI0018600427LA DORADA           00000000000010000000016738000000091041987131              000000000000000004437872000000000000000000007328000002417C
3      800082665D0018699282220110115201101154056CONSIGNACION CONVENIO EMPRESARIAL EFECTI0018600119CAICEDONIA          00000000000010000000147290000000091027258131              000000000000008919006606000000000000000076122000000007514C
3      800082665D0018699282220110114201101144056CONSIGNACION CONVENIO EMPRESARIAL EFECTI0018600884OPERACIONES EMPRESAR00000000000010000003300826000000087246030231              000000000000000000009455000000000000000000009455000035021C
3      800082665D0018699282220110114201101144056CONSIGNACION CONVENIO EMPRESARIAL EFECTI0018600884OPERACIONES EMPRESAR00000000000010000003113953000000087246030231              000000000000000000009455000000000000000000009455000035020C
3      800082665D0018699282220110114201101144056CONSIGNACION CONVENIO EMPRESARIAL EFECTI0018600884OPERACIONES EMPRESAR00000000000010000000144366000000087246030231              000000000000000000009455000000000000000000009455000033030C
3      800082665D0018699282220110114201101144056CONSIGNACION CONVENIO EMPRESARIAL EFECTI0018600884OPERACIONES EMPRESAR00000000000010000000298417000000087246030231              000000000000000000009455000000000000000000009455000033029C
3      800082665D0018699282220110114201101144056CONSIGNACION CONVENIO EMPRESARIAL EFECTI0018600884OPERACIONES EMPRESAR00000000000010000001875859000000087246030231              000000000000000000009455000000000000000000009455000032943C
3      800082665D0018699282220110114201101144056CONSIGNACION CONVENIO EMPRESARIAL EFECTI0018600884OPERACIONES EMPRESAR00000000000010000012300632000000087246030231              000000000000000000009455000000000000000000009455000032942C
3      800082665D0018699282220110114201101144056CONSIGNACION CONVENIO EMPRESARIAL EFECTI0018600884OPERACIONES EMPRESAR00000000000010000001801282000000087246030231              000000000000000000000055000000000000000000009455000032859C
3      800082665D0018699282220110114201101144056CONSIGNACION CONVENIO EMPRESARIAL EFECTI0018600884OPERACIONES EMPRESAR00000000000010000000694024000000087246030231              000000000000000000009455000000000000000000009455000032858C
3      800082665D0018699282220110114201101144056CONSIGNACION CONVENIO EMPRESARIAL EFECTI0018600884OPERACIONES EMPRESAR00000000000010000010152168000000087246030231              000000000000000000009455000000000000000000009455000032846C
3      800082665D0018699282220110114201101144056CONSIGNACION CONVENIO EMPRESARIAL EFECTI0018600884OPERACIONES EMPRESAR00000000000010000002385915950000087246030231              000000000000000000009455000000000000000000009455000032843C
3      800082665D0018699282220110114201101144056CONSIGNACION CONVENIO EMPRESARIAL EFECTI0018600884OPERACIONES EMPRESAR00000000000010000000685000000000087246030231              000000000000000000009455000000000000000000009455000031170C
3      800082665D0018699282220110114201101144056CONSIGNACION CONVENIO EMPRESARIAL EFECTI0018600884OPERACIONES EMPRESAR00000000000010000000189879000000087246030231              000000000000000000009455000000000000000000009455000031169C
3      800082665D0018699282220110114201101144056CONSIGNACION CONVENIO EMPRESARIAL EFECTI0018600119CAICEDONIA          00000000000010000000147290000000087246030231              000000000000008919006606000000000000000076122000000024368C
3      800082665D0018699282220110114201101144056CONSIGNACION CONVENIO EMPRESARIAL EFECTI0018600816YOPAL               00000000000010000000073650000000087246030231              000000000000000009431660000000000000000000005136000020815C
3      800082665D0018699282220110114201101144056CONSIGNACION CONVENIO EMPRESARIAL EFECTI0018600427LA DORADA           00000000000010000000220935000000087246030231              000000000000001073322957000000000000000000052252000018331C
3      800082665D0018699282220110114201101144056CONSIGNACION CONVENIO EMPRESARIAL EFECTI0018600178EL YOPO             00000000000010000000073645000000087246030231              000000000000000105239303000000000000000000001675000017556C
3      800082665D0018699282220110114201101144056CONSIGNACION CONVENIO EMPRESARIAL EFECTI0018600066OFICINA SAN ROQUE - 00000000000010000000182250000000087246030231              000000000000000000002822000000000000000000002822000007216C
3      800082665D0018699282220110114201101144056CONSIGNACION CONVENIO EMPRESARIAL EFECTI0018600844PLAZA IMPERIAL      00000000000010000000146437000000087246030231              000000000000008919006606000000000000000076122000000006978C
3      800082665D0018699282220110114201101144056CONSIGNACION CONVENIO EMPRESARIAL EFECTI0018600427LA DORADA           00000000000010000000025750000000087246030231              000000000000000030349891000000000000000002315540000005812C
3      800082665D0018699282220110113201101134056CONSIGNACION CONVENIO EMPRESARIAL EFECTI0018600884OPERACIONES EMPRESAR00000000000010000000423208000000085515748391              000000000000000000009455000000000000000000009455000035706C
3      800082665D0018699282220110113201101134056CONSIGNACION CONVENIO EMPRESARIAL EFECTI0018600884OPERACIONES EMPRESAR00000000000010000001668690000000085515748391              000000000000000000009455000000000000000000009455000035705C
3      800082665D0018699282220110113201101134056CONSIGNACION CONVENIO EMPRESARIAL EFECTI0018600884OPERACIONES EMPRESAR00000000000010000002777502000000085515748391              000000000000000000009455000000000000000000009455000034612C
3      800082665D0018699282220110113201101134056CONSIGNACION CONVENIO EMPRESARIAL EFECTI0018600884OPERACIONES EMPRESAR00000000000010000000433844000000085515748391              000000000000000000009455000000000000000000009455000034611C
3      800082665D0018699282220110113201101134056CONSIGNACION CONVENIO EMPRESARIAL EFECTI0018600884OPERACIONES EMPRESAR00000000000010000001702843000000085515748391              000000000000000000009455000000000000000000009455000034514C
3      800082665D0018699282220110113201101134056CONSIGNACION CONVENIO EMPRESARIAL EFECTI0018600884OPERACIONES EMPRESAR00000000000010000002582289000000085515748391              000000000000000000009455000000000000000000009455000034513C
3      800082665D0018699282220110113201101134056CONSIGNACION CONVENIO EMPRESARIAL EFECTI0018600884OPERACIONES EMPRESAR00000000000010000001659046000000085515748391              000000000000000000000945000000000000000000009455000027817C
3      800082665D0018699282220110113201101134056CONSIGNACION CONVENIO EMPRESARIAL EFECTI0018600884OPERACIONES EMPRESAR00000000000010000000587821000000085515748391              000000000000000000009455000000000000000000009455000027816C
3      800082665D0018699282220110113201101134056CONSIGNACION CONVENIO EMPRESARIAL EFECTI0018600884OPERACIONES EMPRESAR00000000000010000000916865000000085515748391              000000000000000000009455000000000000000000009455000026648C
3      800082665D0018699282220110113201101134056CONSIGNACION CONVENIO EMPRESARIAL EFECTI0018600884OPERACIONES EMPRESAR00000000000010000000370547000000085515748391              000000000000000000009455000000000000000000009455000026647C
3      800082665D0018699282220110113201101134056CONSIGNACION CONVENIO EMPRESARIAL EFECTI0018600884OPERACIONES EMPRESAR00000000000010000000354006400000085515748391              000000000000000000009455000000000000000000009455000026642C
3      800082665D0018699282220110113201101134056CONSIGNACION CONVENIO EMPRESARIAL EFECTI0018600884OPERACIONES EMPRESAR00000000000010000000822342000000085515748391              000000000000000000009455000000000000000000009455000026419C
3      800082665D0018699282220110113201101134056CONSIGNACION CONVENIO EMPRESARIAL EFECTI0018600427LA DORADA           00000000000010000000073645000000085515748391              000000000000000010183663000000000000000000055415000025164C
3      800082665D0018699282220110113201101134056CONSIGNACION CONVENIO EMPRESARIAL EFECTI0018600119CAICEDONIA          00000000000010000000439350000000085515748391              000000000000008919006606000000000000000076122000000023988C
3      800082665D0018699282220110113201101134056CONSIGNACION CONVENIO EMPRESARIAL EFECTI0018600816YOPAL               00000000000010000000220935000000085515748391              000000000000000009525478000000000000000000005208000023613C
3      800082665D0018699282220110113201101134056CONSIGNACION CONVENIO EMPRESARIAL EFECTI0018600816YOPAL               00000000000010000000073645000000085515748391              000000000000000004112497000000000000000000002860000023315C
3      800082665D0018699282220110113201101134056CONSIGNACION CONVENIO EMPRESARIAL EFECTI0018600816YOPAL               00000000000010000000073645000000085515748391              000000000000000017646885000000000000000000005105000021584C
3      800082665D0018699282220110113201101134065CONSIGNACION CONVENIO EMPRESARIAL CANJE 0018600077ANSERMA             00000737511020000001125373000000085515748391              000000000000008908011391000000000000008908011391000018625C
3      800082665D0018699282220110113201101134056CONSIGNACION CONVENIO EMPRESARIAL EFECTI0018600066OFICINA SAN ROQUE - 00000000000010000000416239000000085515748391              000000000000000000992822000000000000000000002822000009607C
3      800082665D0018699282220110113201101134056CONSIGNACION CONVENIO EMPRESARIAL EFECTI0018600427LA DORADA           00000000000010000000219660000000085515748391              000000000000001007303167000000000000000000055056000007398C
3      800082665D0018699282220110113201101134056CONSIGNACION CONVENIO EMPRESARIAL EFECTI0018600383VENECIA             00000000000010000000141625000000085515748391              000000000000008909807641000000000000008909807641000006988C
3      800082665D0018699282220110113201101134056CONSIGNACION CONVENIO EMPRESARIAL EFECTI0018600178EL YOPO             00000000000010000000219698000000085515748391              000000000000000004087244000000000000000000000002000006314C
3      800082665D0018699282220110112201101124056CONSIGNACION CONVENIO EMPRESARIAL EFECTI0018600884OPERACIONES EMPRESAR00000000000010000001543832000000083134191801              000000000000000000009455000000000000000000009455000036088C
3      800082665D0018699282220110112201101124056CONSIGNACION CONVENIO EMPRESARIAL EFECTI0018600884OPERACIONES EMPRESAR00000000000010000002053809000000083134191801              000000000000000000009455000000000000000000009455000036087C
3      800082665D0018699282220110112201101124056CONSIGNACION CONVENIO EMPRESARIAL EFECTI0018600884OPERACIONES EMPRESAR00000000000010000001248378000000083134191801              000000000000000000009455000000000000000000009455000035104C
3      800082665D0018699282220110112201101124056CONSIGNACION CONVENIO EMPRESARIAL EFECTI0018600884OPERACIONES EMPRESAR00000000000010000000489282000000083134191801              000000000000000000009455000000000000000000009455000035103C
3      800082665D0018699282220110112201101124056CONSIGNACION CONVENIO EMPRESARIAL EFECTI0018600884OPERACIONES EMPRESAR00000000000010000008465756000000083134191801              000000000000000000009455000000000000000000009455000030606C
3      800082665D0018699282220110112201101124056CONSIGNACION CONVENIO EMPRESARIAL EFECTI0018600884OPERACIONES EMPRESAR00000000000010000002402439000000083134191801              000000000000000000009455000000000000000000009455000030513C
3      800082665D0018699282220110112201101124056CONSIGNACION CONVENIO EMPRESARIAL EFECTI0018600884OPERACIONES EMPRESAR00000000000010000000596446000000083134191801              000000000000000000009455000000000000000000009455000030512C
3      800082665D0018699282220110112201101124056CONSIGNACION CONVENIO EMPRESARIAL EFECTI0018600884OPERACIONES EMPRESAR00000000000010000000826852950000083134191801              000000000000000000009455000000000000000000009455000030505C
3      800082665D0018699282220110112201101124056CONSIGNACION CONVENIO EMPRESARIAL EFECTI0018600884OPERACIONES EMPRESAR00000000000010000001348153000000083134191801              000000000000000000009455000000000000000000009455000029111C
3      800082665D0018699282220110112201101124056CONSIGNACION CONVENIO EMPRESARIAL EFECTI0018600884OPERACIONES EMPRESAR00000000000010000000844044000000083134191801              000000000000000000000005000000000000000000000009000029110C
3      800082665D0018699282220110112201101124065CONSIGNACION CONVENIO EMPRESARIAL CANJE 0018600210LA PLATA*           00000635882020000002483122000000083134191801              000000000000000891180155000000000000000000786188000024339C
3      800082665D0018699282220110112201101124056CONSIGNACION CONVENIO EMPRESARIAL EFECTI0018600119CAICEDONIA          00000000000010000000147290000000083134191801              000000000000008919006606000000000000000076122000000023577C
3      800082665D0018699282220110112201101124056CONSIGNACION CONVENIO EMPRESARIAL EFECTI0018600427LA DORADA           00000000000010000000220935000000083134191801              000000000000000010177786000000000000000000055057000017703C
3      800082665D0018699282220110112201101124056CONSIGNACION CONVENIO EMPRESARIAL EFECTI0018600427LA DORADA           00000000000010000000073220000000083134191801              000000000000000004438500000000000000000000055420000008805C
3      800082665D0018699282220110112201101124056CONSIGNACION CONVENIO EMPRESARIAL EFECTI0018600400PAMPLONA            00000000000010000000147290000000083134191801              000000000000000054518000000000000000008000826750000008770C
3      800082665D0018699282220110112201101124056CONSIGNACION CONVENIO EMPRESARIAL EFECTI0018600427LA DORADA           00000000000010000000073220000000083134191801              000000000000000010170833000000000000000000053282000007955C
3      800082665D0018699282220110112201101124056CONSIGNACION CONVENIO EMPRESARIAL EFECTI0018600119CAICEDONIA          00000000000010000000146437000000083134191801              000000000000008919006606000000000000000076122000000006457C
3      800082665D0018699282220110112201101124056CONSIGNACION CONVENIO EMPRESARIAL EFECTI0018600324ROLDANILLO          00000000000010000000068420000000083134191801              000000000000000000210266000000000000000000000210000005894C
3      800082665D0018699282220110112201101124056CONSIGNACION CONVENIO EMPRESARIAL EFECTI0018600066OFICINA SAN ROQUE - 00000000000010000000636640000000083134191801              000000000000000000992822000000000000000000002822000005643C
3      800082665D0018699282220110111201101114056CONSIGNACION CONVENIO EMPRESARIAL EFECTI0018600884OPERACIONES EMPRESAR00000000000010000002924055000000079689922731              000000000000000000009455000000000000000000009455000029601C
3      800082665D0018699282220110111201101114056CONSIGNACION CONVENIO EMPRESARIAL EFECTI0018600884OPERACIONES EMPRESAR00000000000010000000809023000000079689922731              000000000000000000009455000000000000000000009455000029600C
3      800082665D0018699282220110111201101114056CONSIGNACION CONVENIO EMPRESARIAL EFECTI0018600884OPERACIONES EMPRESAR00000000000010000004128751000000079689922731              000000000000000000009455000000000000000000009455000029205C
3      800082665D0018699282220110111201101114056CONSIGNACION CONVENIO EMPRESARIAL EFECTI0018600884OPERACIONES EMPRESAR00000000000010000009916122000000079689922731              000000000000000000009455000000000000000000009455000029204C
3      800082665D0018699282220110111201101114056CONSIGNACION CONVENIO EMPRESARIAL EFECTI0018600884OPERACIONES EMPRESAR00000000000010000000667754000000079689922731              000000000000000000009455000000000000000000009455000029203C
3      800082665D0018699282220110111201101114056CONSIGNACION CONVENIO EMPRESARIAL EFECTI0018600884OPERACIONES EMPRESAR00000000000010000004339893000000079689922731              000000000000000000009455000000000000000000009455000029003C
3      800082665D0018699282220110111201101114056CONSIGNACION CONVENIO EMPRESARIAL EFECTI0018600884OPERACIONES EMPRESAR00000000000010000003692829000000079689922731              000000000000000000009455000000000000000000009455000029002C
3      800082665D0018699282220110111201101114056CONSIGNACION CONVENIO EMPRESARIAL EFECTI0018600884OPERACIONES EMPRESAR00000000000010000000768795000000079689922731              000000000000000000009455000000000000000000009455000029001C
3      800082665D0018699282220110111201101114056CONSIGNACION CONVENIO EMPRESARIAL EFECTI0018600884OPERACIONES EMPRESAR00000000000010000001129792000000079689922731              000000000000000000009455000000000000000000009455000026234C
3      800082665D0018699282220110111201101114056CONSIGNACION CONVENIO EMPRESARIAL EFECTI0018600884OPERACIONES EMPRESAR00000000000010000001573023650000079689922731              000000000000000000009455000000000000000000009455000026225C
3      800082665D0018699282220110111201101114056CONSIGNACION CONVENIO EMPRESARIAL EFECTI0018600884OPERACIONES EMPRESAR00000000000010000000306367000000079689922731              000000000000000000009455000000000000000000009455000025821C
3      800082665D0018699282220110111201101114056CONSIGNACION CONVENIO EMPRESARIAL EFECTI0018600884OPERACIONES EMPRESAR00000000000010000000662628000000079689922731              000000000000000000009455000000000000000000009455000025820C
3      800082665D0018699282220110111201101114056CONSIGNACION CONVENIO EMPRESARIAL EFECTI0018600884OPERACIONES EMPRESAR00000000000010000000157369000000079689922731              000000000000000000009455000000000000000000009455000024105C
3      800082665D0018699282220110111201101114056CONSIGNACION CONVENIO EMPRESARIAL EFECTI0018600400PAMPLONA            00000000000010000000039050000000079689922731              000000000000000545180000000000000000008000826750000021991C
3      800082665D0018699282220110111201101114056CONSIGNACION CONVENIO EMPRESARIAL EFECTI0018600427LA DORADA           00000000000010000000219660000000079689922731              000000000000000010174215000000000000000000052253000021982C
3      800082665D0018699282220110111201101114056CONSIGNACION CONVENIO EMPRESARIAL EFECTI0018600816YOPAL               00000000000010000000039078000000079689922731              000000000000000074858118000000000000000000006402000017335C
3      800082665D0018699282220110111201101114056CONSIGNACION CONVENIO EMPRESARIAL EFECTI0018600816YOPAL               00000000000010000000073260000000079689922731              000000000000000046371259000000000000000000006244000017179C
3      800082665D0018699282220110111201101114056CONSIGNACION CONVENIO EMPRESARIAL EFECTI0018600427LA DORADA           00000000000010000000073220000000079689922731              000000000000000005957722000000000000000000053280000013711C
3      800082665D0018699282220110111201101114056CONSIGNACION CONVENIO EMPRESARIAL EFECTI0018600427LA DORADA           00000000000010000000219660000000079689922731              000000000000000079372713000000000000000000055065000013642C
3      800082665D0018699282220110111201101114056CONSIGNACION CONVENIO EMPRESARIAL EFECTI0018600427LA DORADA           00000000000010000000219660000000079689922731              000000000000000008605240000000000000000001862500000012359C
3      800082665D0018699282220110111201101114056CONSIGNACION CONVENIO EMPRESARIAL EFECTI0018600427LA DORADA           00000000000010000000219660000000079689922731              000000000000000010183193000000000000000002862499000004884C
3      800082665D0018699282220110111201101114056CONSIGNACION CONVENIO EMPRESARIAL EFECTI0018600066OFICINA SAN ROQUE - 00000000000010000000431770000000079689922731              000000000000000000992822000000000000000000002822000004632C
3      800082665D0018699282220110111201101114056CONSIGNACION CONVENIO EMPRESARIAL EFECTI0018600119CAICEDONIA          00000000000010000000219656000000079689922731              000000000000008919006606000000000000000076122000000004443C
3      800082665D0018699282220110111201101114056CONSIGNACION CONVENIO EMPRESARIAL EFECTI0018600816YOPAL               00000000000010000000219684000000079689922731              000000000000000078030179000000000000000000000148000004422C
3      800082665D0018699282220110111201101114056CONSIGNACION CONVENIO EMPRESARIAL EFECTI0018600816YOPAL               00000000000010000000219698000000079689922731              000000000000000009654153000000000000000000006091000004273C
3      800082665D0018699282220110111201101114056CONSIGNACION CONVENIO EMPRESARIAL EFECTI0018600427LA DORADA           00000000000010000000073220000000079689922731              000000000000000010186311000000000000000000055381000001479C
3      800082665D0018699282220110111201101114327CREDITO NOMINA CTL                      0018600222ACH                 0000000000001000000109901300000007968992273                                                               000000229C
3      800082665D0018699282220110108201101084056CONSIGNACION CONVENIO EMPRESARIAL EFECTI0018600119CAICEDONIA          00000000000010000000439350000000079645987731              000000000000008919006606000000000000000076122000000001333C
3      800082665D0018699282220110107201101074056CONSIGNACION CONVENIO EMPRESARIAL EFECTI0018600884OPERACIONES EMPRESAR00000000000010000001999059000000075725935161              000000000000000000009455000000000000000000009455000027228C
3      800082665D0018699282220110107201101074056CONSIGNACION CONVENIO EMPRESARIAL EFECTI0018600884OPERACIONES EMPRESAR00000000000010000001137671000000075725935161              000000000000000000009455000000000000000000009455000027227C
3      800082665D0018699282220110107201101074056CONSIGNACION CONVENIO EMPRESARIAL EFECTI0018600884OPERACIONES EMPRESAR00000000000010000001558476000000075725935161              000000000000000000009455000000000000000000009455000027137C
3      800082665D0018699282220110107201101074056CONSIGNACION CONVENIO EMPRESARIAL EFECTI0018600884OPERACIONES EMPRESAR00000000000010000002599542000000075725935161              000000000000000000009455000000000000000000009455000027136C
3      800082665D0018699282220110107201101074056CONSIGNACION CONVENIO EMPRESARIAL EFECTI0018600884OPERACIONES EMPRESAR00000000000010000001627848750000075725935161              000000000000000000009455000000000000000000009455000027130C
3      800082665D0018699282220110107201101074056CONSIGNACION CONVENIO EMPRESARIAL EFECTI0018600884OPERACIONES EMPRESAR00000000000010000002249882000000075725935161              000000000000000000009455000000000000000000009455000027034C
3      800082665D0018699282220110107201101074056CONSIGNACION CONVENIO EMPRESARIAL EFECTI0018600884OPERACIONES EMPRESAR00000000000010000000498503000000075725935161              000000000000000000009455000000000000000000009455000027033C
3      800082665D0018699282220110107201101074056CONSIGNACION CONVENIO EMPRESARIAL EFECTI0018600884OPERACIONES EMPRESAR00000000000010000000600724000000075725935161              000000000000000000009455000000000000000000009455000026931C
3      800082665D0018699282220110107201101074056CONSIGNACION CONVENIO EMPRESARIAL EFECTI0018600884OPERACIONES EMPRESAR00000000000010000001467694000000075725935161              000000000000000000009455000000000000000000009455000026930C
3      800082665D0018699282220110107201101074056CONSIGNACION CONVENIO EMPRESARIAL EFECTI0018600884OPERACIONES EMPRESAR00000000000010000011306635000000075725935161              000000000000000000009455000000000000000000009455000026535C
3      800082665D0018699282220110107201101074056CONSIGNACION CONVENIO EMPRESARIAL EFECTI0018600884OPERACIONES EMPRESAR00000000000010000000392530000000075725935161              000000000000000000009455000000000000000000009455000026534C
3      800082665D0018699282220110107201101074065CONSIGNACION CONVENIO EMPRESARIAL CANJE 0018600834FACATATIVA          00000348427020000003911947000000075725935161              000000000000008999993281000000000000008999993281000026273C
3      800082665D0018699282220110107201101074056CONSIGNACION CONVENIO EMPRESARIAL EFECTI0018600427LA DORADA           00000000000010000000073220000000075725935161              000000000000000093335011000000000000000000053278000026181C
3      800082665D0018699282220110107201101074056CONSIGNACION CONVENIO EMPRESARIAL EFECTI0018600427LA DORADA           00000000000010000000219660000000075725935161              000000000000000016015615000000000000000000053277000026078C
3      800082665D0018699282220110107201101074056CONSIGNACION CONVENIO EMPRESARIAL EFECTI0018600427LA DORADA           00000000000010000000033843000000075725935161              000000000000000024710586000000000000000001106769000025203C
3      800082665D0018699282220110107201101074056CONSIGNACION CONVENIO EMPRESARIAL EFECTI0018600427LA DORADA           00000000000010000000212438000000075725935161              000000000000001088269620000000000000000000053270000025188C
3      800082665D0018699282220110107201101074065CONSIGNACION CONVENIO EMPRESARIAL CANJE 0018600159ARAUCA              00000947805020000002746338000000075725935161              000000000000008001148695000000000000008001148695000022796C
3      800082665D0018699282220110107201101074056CONSIGNACION CONVENIO EMPRESARIAL EFECTI0018600427LA DORADA           00000000000010000000152635000000075725935161              000000000000000014322687000000000000000002313885000015725C
3      800082665D0018699282220110107201101074065CONSIGNACION CONVENIO EMPRESARIAL CANJE 0018600365TULUA PARQUE BOYACA 00000256085020000002374549000000075725935161              000000000000008919004434000000000000000000003760000008530C
3      800082665D0018699282220110107201101074056CONSIGNACION CONVENIO EMPRESARIAL EFECTI0018600427LA DORADA           00000000000010000000152307000000075725935161              000000000000000014322687000000000000000002313885000007685C
3      800082665D0018699282220110107201101074065CONSIGNACION CONVENIO EMPRESARIAL CANJE 0018600365TULUA PARQUE BOYACA 00000256084020000003119936000000075725935161              000000000000008919004434000000000000000000003760000006737C
3      800082665D0018699282220110107201101074056CONSIGNACION CONVENIO EMPRESARIAL EFECTI0018600066OFICINA SAN ROQUE - 00000000000010000000765088000000075725935161              000000000000000000000822000000000000000000000822000006514C
3      800082665D0018699282220110106201101064056CONSIGNACION CONVENIO EMPRESARIAL EFECTI0018600884OPERACIONES EMPRESAR00000000000010000001754035000000072994587611              000000000000000000009455000000000000000000009455000028898C
3      800082665D0018699282220110106201101064056CONSIGNACION CONVENIO EMPRESARIAL EFECTI0018600884OPERACIONES EMPRESAR00000000000010000002219605000000072994587611              000000000000000000009455000000000000000000009455000028897C
3      800082665D0018699282220110106201101064056CONSIGNACION CONVENIO EMPRESARIAL EFECTI0018600884OPERACIONES EMPRESAR00000000000010000002791825000000072994587611              000000000000000000009455000000000000000000009455000028804C
3      800082665D0018699282220110106201101064056CONSIGNACION CONVENIO EMPRESARIAL EFECTI0018600884OPERACIONES EMPRESAR00000000000010000000444747000000072994587611              000000000000000000009455000000000000000000009455000028803C
3      800082665D0018699282220110106201101064056CONSIGNACION CONVENIO EMPRESARIAL EFECTI0018600884OPERACIONES EMPRESAR00000000000010000000198797500000072994587611              000000000000000000009455000000000000000000009455000028794C
3      800082665D0018699282220110106201101064056CONSIGNACION CONVENIO EMPRESARIAL EFECTI0018600884OPERACIONES EMPRESAR00000000000010000000560054000000072994587611              000000000000000000009455000000000000000000009455000027510C
3      800082665D0018699282220110106201101064056CONSIGNACION CONVENIO EMPRESARIAL EFECTI0018600884OPERACIONES EMPRESAR00000000000010000000691435000000072994587611              000000000000000000009455000000000000000000009455000027509C
3      800082665D0018699282220110106201101064056CONSIGNACION CONVENIO EMPRESARIAL EFECTI0018600884OPERACIONES EMPRESAR00000000000010000001329758000000072994587611              000000000000000000009455000000000000000000009455000027508C
3      800082665D0018699282220110106201101064056CONSIGNACION CONVENIO EMPRESARIAL EFECTI0018600884OPERACIONES EMPRESAR00000000000010000000373051000000072994587611              000000000000000000009455000000000000000000009455000025715C
3      800082665D0018699282220110106201101064056CONSIGNACION CONVENIO EMPRESARIAL EFECTI0018600884OPERACIONES EMPRESAR00000000000010000000560122000000072994587611              000000000000000000009455000000000000000000009455000025714C
3      800082665D0018699282220110106201101064056CONSIGNACION CONVENIO EMPRESARIAL EFECTI0018600884OPERACIONES EMPRESAR00000000000010000001806515000000072994587611              000000000000000000009455000000000000000000009455000025418C
3      800082665D0018699282220110106201101064056CONSIGNACION CONVENIO EMPRESARIAL EFECTI0018600884OPERACIONES EMPRESAR00000000000010000010653402000000072994587611              000000000000000000009455000000000000000000009455000025417C
